{
  "contractName": "currentLocation",
  "abi": [
    {
      "inputs": [
        {
          "internalType": "string",
          "name": "_latti",
          "type": "string"
        },
        {
          "internalType": "string",
          "name": "_longi",
          "type": "string"
        }
      ],
      "name": "setGeo",
      "outputs": [
        {
          "internalType": "string",
          "name": "",
          "type": "string"
        },
        {
          "internalType": "string",
          "name": "",
          "type": "string"
        }
      ],
      "stateMutability": "nonpayable",
      "type": "function"
    }
  ],
  "bytecode": "0x608060405234801561001057600080fd5b50610751806100206000396000f3fe608060405234801561001057600080fd5b506004361061002b5760003560e01c8063e0b1133b14610030575b600080fd5b61004a60048036038101906100459190610305565b610061565b6040516100589291906103fc565b60405180910390f35b60608083600190816100739190610649565b5082600090816100839190610649565b506001600081805461009490610462565b80601f01602080910402602001604051908101604052809291908181526020018280546100c090610462565b801561010d5780601f106100e25761010080835404028352916020019161010d565b820191906000526020600020905b8154815290600101906020018083116100f057829003601f168201915b5050505050915080805461012090610462565b80601f016020809104026020016040519081016040528092919081815260200182805461014c90610462565b80156101995780601f1061016e57610100808354040283529160200191610199565b820191906000526020600020905b81548152906001019060200180831161017c57829003601f168201915b50505050509050915091509250929050565b6000604051905090565b600080fd5b600080fd5b600080fd5b600080fd5b6000601f19601f8301169050919050565b7f4e487b7100000000000000000000000000000000000000000000000000000000600052604160045260246000fd5b610212826101c9565b810181811067ffffffffffffffff82111715610231576102306101da565b5b80604052505050565b60006102446101ab565b90506102508282610209565b919050565b600067ffffffffffffffff8211156102705761026f6101da565b5b610279826101c9565b9050602081019050919050565b82818337600083830152505050565b60006102a86102a384610255565b61023a565b9050828152602081018484840111156102c4576102c36101c4565b5b6102cf848285610286565b509392505050565b600082601f8301126102ec576102eb6101bf565b5b81356102fc848260208601610295565b91505092915050565b6000806040838503121561031c5761031b6101b5565b5b600083013567ffffffffffffffff81111561033a576103396101ba565b5b610346858286016102d7565b925050602083013567ffffffffffffffff811115610367576103666101ba565b5b610373858286016102d7565b9150509250929050565b600081519050919050565b600082825260208201905092915050565b60005b838110156103b757808201518184015260208101905061039c565b60008484015250505050565b60006103ce8261037d565b6103d88185610388565b93506103e8818560208601610399565b6103f1816101c9565b840191505092915050565b6000604082019050818103600083015261041681856103c3565b9050818103602083015261042a81846103c3565b90509392505050565b7f4e487b7100000000000000000000000000000000000000000000000000000000600052602260045260246000fd5b6000600282049050600182168061047a57607f821691505b60208210810361048d5761048c610433565b5b50919050565b60008190508160005260206000209050919050565b60006020601f8301049050919050565b600082821b905092915050565b6000600883026104f57fffffffffffffffffffffffffffffffffffffffffffffffffffffffffffffffff826104b8565b6104ff86836104b8565b95508019841693508086168417925050509392505050565b6000819050919050565b6000819050919050565b600061054661054161053c84610517565b610521565b610517565b9050919050565b6000819050919050565b6105608361052b565b61057461056c8261054d565b8484546104c5565b825550505050565b600090565b61058961057c565b610594818484610557565b505050565b5b818110156105b8576105ad600082610581565b60018101905061059a565b5050565b601f8211156105fd576105ce81610493565b6105d7846104a8565b810160208510156105e6578190505b6105fa6105f2856104a8565b830182610599565b50505b505050565b600082821c905092915050565b600061062060001984600802610602565b1980831691505092915050565b6000610639838361060f565b9150826002028217905092915050565b6106528261037d565b67ffffffffffffffff81111561066b5761066a6101da565b5b6106758254610462565b6106808282856105bc565b600060209050601f8311600181146106b357600084156106a1578287015190505b6106ab858261062d565b865550610713565b601f1984166106c186610493565b60005b828110156106e9578489015182556001820191506020850194506020810190506106c4565b868310156107065784890151610702601f89168261060f565b8355505b6001600288020188555050505b50505050505056fea26469706673582212209fc8a735c6cee839c32a11cc9f5c788810e02311a891f6b123c7ffd067a2586a64736f6c63430008130033",
  "immutableReferences": {},
  "source": "// SPDX-License-Identifier: GPL-3.0\npragma solidity ^0.8.0;\n\ncontract currentLocation{\n    string longitude;\n    string lattitude;\n\n    function setGeo( string memory _latti, string  memory _longi)public returns (string memory, string memory){\n        lattitude = _latti;\n        longitude = _longi;\n        return (lattitude, longitude);\n\n    }\n}\n",
  "sourcePath": "/home/mrnobody/Desktop/Truffleproject/contracts/currentLocation.sol",
  "compiler": {
    "name": "solc",
    "version": "0.8.19+commit.7dd6d404.Emscripten.clang"
  },
  "schemaVersion": "3.4.13",
  "updatedAt": "2023-04-28T17:16:09.771Z",
  "networkType": "ethereum",
  "devdoc": {
    "kind": "dev",
    "methods": {},
    "version": 1
  },
  "userdoc": {
    "kind": "user",
    "methods": {},
    "version": 1
  }
}